:100000000C9463000C94D1010C9480000C9480003B
:100010000C9480000C9480000C9480000C94800060
:100020000C9480000C9480000C9480000C94800050
:100030000C9480000C9480000C9480000C94800040
:100040000C9480000C9480000C9480000C94800030
:100050000C948000040309040E0366007200610022
:100060006D0070007A0012036D0069006B0065007E
:10007000720075006C007A00120110010000000887
:10008000C016DB2700010102000109022200010164
:1000900000800A0904000001030000000921010199
:1000A0000001221900070581030800640501090603
:1000B000A1010507950875081500256505071900B4
:1000C00029658100C00011241FBECFE5D4E0DEBF4A
:1000D000CDBF10E0A0E6B0E0E6EFF9E002C0059089
:1000E0000D92A436B107D9F710E0A4E6B0E001C044
:1000F0001D92A93FB107E1F70E949F040C94F904F7
:100100000C94000085B7826085BF8BB780648BBF7D
:100110008BE480937B008AE580937A0008951F9397
:10012000CF93DF9390918B00935097FDA2C02091C5
:100130008800809187008D3209F099C0983009F0CD
:1001400096C0CCE0D0E0C21BD109C157DF4F83EC91
:1001500080936F008AE5809360001092640088812C
:10016000807629F0CE010E940B03282F77C09A8158
:10017000109278008981882321F41092790022E07E
:1001800067C0853019F490938C0061C0863009F007
:100190004AC08B81813019F488E790E025C0823015
:1001A00041F48AE890E090938A008093890022E2EB
:1001B00036C08330F9F48A81882341F484E590E0E5
:1001C00090938A008093890024E029C0813041F413
:1001D00088E590E090938A00809389002EE01FC00C
:1001E0008230E1F486E690E090938A008093890063
:1001F00022E115C0813241F48CE990E090938A00AD
:100200008093890029E00BC0823241F48CEA90E0AF
:1002100090938A008093890029E101C020E080E466
:10022000809364001BC0883021F421E08EE890E0C8
:1002300011C0893019F490938E0009C08A3011F4EE
:1002400021E006C08B3019F48BE480937B0020E022
:1002500088E790E090938A00809389008F818823BB
:1002600021F48E81821708F4282F209361001092C8
:100270008B008091600084FF4AC0809161008F3FB5
:1002800009F445C0182F893008F018E0811B8093CD
:10029000610080916F0098E8892780936F00112397
:1002A00041F12091890030918A008091640086FF9D
:1002B0000DC0A0E7B0E080E090E0F901E80FF91F81
:1002C000E491ED9301961817C1F708C0912FD90159
:1002D000E0E7F0E08D9181939150E1F71150812F8B
:1002E00090E01F5F0196820F931F90938A00809386
:1002F000890080E790E0612F0E94CD01612F6C5F43
:100300006C3019F08FEF809361006093600094E18E
:1003100080B3847231F49150D9F710928C0010920E
:100320008600DF91CF911F9108951F93DC01162F56
:1003300080917A0084FF07C080917B0098E889272C
:1003400080937B0003C08AE580937A00912FECE7CD
:10035000F0E08D91819391501916DCF38CE790E0D9
:10036000612F0E94CD011C5F10937A001F910895A8
:10037000A82FB92F80E090E041E050EA609530E08E
:1003800009C02D9182279795879510F0842795278E
:10039000305EC8F36F5FA8F30895EADF8D939D93F5
:1003A0000895CF93CFB7CF93C395859BE9F7859BEE
:1003B00009C0859B07C0859B05C0859B03C0859BA5
:1003C00001C0A3C0DF93C0918800DD27C157DF4F74
:1003D000859B02C0DF91EBCF2F930F931F9300B348
:1003E0002FEF05FB20F94F933F9310B34FEF0127F9
:1003F00005FB21F93BE031C04E7F012F10B3216096
:1004000028C0102F4D7F2260000000B329C04B7F11
:100410002460012F000010B32BC010B3477F286069
:100420002AC04F7E00B320612CC04F7D10B32062E4
:100430002FC04F7B00B3206432C0422700B34993E2
:100440004FEF0000102715FB20F910B31472C9F10B
:10045000297F91F2012705FB21F900B3237F89F25F
:10046000315058F1102715FB22F910B3277E79F28D
:10047000012705FB23F92F7C81F200B3102715FB20
:1004800024F92F7971F200C010B3012705FB25F97B
:100490002F7359F200C000B3102715FB26F9223044
:1004A00040F200C010B3012705FB27F9243028F6DD
:1004B0004F77206810B30000F9CF10E41ABF00276F
:1004C00019C03B503195C31BD04010E41ABF0881BE
:1004D000033CF9F00B34E9F0209186001981110FEB
:1004E0001213EDCF4A81441F093641F10D3211F04C
:1004F000013E29F700938D003F914F911F910F917D
:100500002F91DF91CAB7C6FD4FCFCF91CFBFCF910B
:10051000189520918D00222379F310918B001123DF
:1005200069F534306AF130938B0020938700109185
:1005300088003BE0311B3093880022C000918B0083
:100540000130E4F40AE54F7049F43091600034FD65
:1005500019C000936000CFE6D0E018C030917A0057
:1005600034FD10C000937A00CBE7D0E00FC0279590
:10057000A8F45150A9F4220F0000F9CF4AE503C0B6
:1005800042ED01C0432FC4E1D0E032E011B3146268
:10059000959A11BB02B320E414E25F93012756E061
:1005A00002BB279520F4515021F4220FF9CF0127E7
:1005B00056E000003B5A02BBD0F2279528F4515078
:1005C00029F4220F0000F9CF012756E0279502BB3E
:1005D00020F4515021F4220FF9CF012756E0299140
:1005E000332302BB21F60B7D10918C00110FC651F5
:1005F000D04002BB11F01093860010E41ABF0062D5
:1006000011B31B7D402F4B7D5F9100C000C002BB2A
:1006100011BB42BB71CFFC0186E690E090938A004B
:1006200080938900808180768032B1F5818183302A
:1006300029F1843028F4813051F0823069F509C005
:100640008A3051F08B3001F1893031F50AC088E0F1
:1006500008958EE690E01AC0838180936E0080E05A
:10066000089586819781019719F481E08093650050
:1006700080916500813081F48FEF08958381882314
:1006800059F410926200089582E690E090938A00F7
:100690008093890081E0089580E00895FF920F9390
:1006A0001F93CF93DF938C01EA01FB011082188224
:1006B000A5EAB0E083E0F82E36E04D915C91119709
:1006C0004130510569F04130510540F0423051054B
:1006D00079F04330510571F020E018C089B301C0B2
:1006E00086B320E012969C911297892379F404C076
:1006F00083B3F7CF80B3F5CF21E012968C91129798
:10070000883021F44230510509F4969A13968C9161
:100710001397281751F4222321F014963C93149731
:100720001CC01496FC92149718C014968C911497C0
:10073000815014968C931497882379F413962C93F4
:100740001397222321F014963C93149703C0149618
:10075000FC92149788818F5F888313968C911397EE
:10076000882379F0FB018081E82FFF27E7FDF095D2
:10077000E00FF11F15969C91159790838F5FFB01F9
:1007800080831796F0E0A93FBF0709F096CFDF916D
:10079000CF911F910F91FF900895CF93DF93DC01CC
:1007A000E90188819981FC0123E0EE0FFF1F2A9562
:1007B000E1F7E81BF90BEB55FF4FB183A083628390
:1007C00088819981FC0173E0EE0FFF1F7A95E1F7B4
:1007D000E81BF90BEB55FF4F138288819981FC01CF
:1007E00033E0EE0FFF1F3A95E1F7E81BF90BEB55ED
:1007F000FF4F86E0848388819981FC0123E0EE0F1E
:10080000FF1F2A95E1F7E81BF90BEB55FF4F5683C5
:100810004583A130B10569F0A130B10530F0A230B7
:10082000B10559F0139781F40CC08BB3862B8BBBA9
:100830000BC088B3862B88BB07C085B3862B85BBCE
:1008400003C082B3862B82BB8881998101969983EC
:100850008883DF91CF9108950F931F93DF93CF93F8
:1008600000D0CDB7DEB71A82198280E090E062E056
:1008700044E050E08E010F5F1F4F98010E94CD03AE
:1008800080E090E068E046E150E098010E94CD03EE
:1008900080E090E060E247E050E098010E94CD03E4
:1008A00080E090E064E04DE150E098010E94CD03CB
:1008B00080E090E060E14BE150E098010E94CD03C0
:1008C00080E090E060E446E050E098010E94CD03B3
:1008D00082E090E064E04AE050E098010E94CD039D
:1008E00082E090E060E14BE050E098010E94CD038F
:1008F00082E090E060E44DE050E098010E94CD037A
:1009000082E090E062E045E050E098010E94CD0373
:1009100082E090E068E041E150E098010E94CD0360
:1009200082E090E060E240E150E098010E94CD0357
:100930000F900F90CF91DF911F910F910895CF925B
:10094000DF92EF92FF920F931F93DF93CF9300D02C
:10095000CDB7DEB78E9A2EE088E190E00FB6F8941E
:10096000A89581BD0FBE21BD0E9482008D9A20E016
:1009700048EB5BE004C0A895CA010197F1F721504C
:10098000D1F78D988BB78BBF8BB781608BBF789475
:1009900085E083BF12BE06E610E088E0F801119200
:1009A0008A95E9F70E942C0432E0C32ED12CCC0E9C
:1009B000DD1E78018E010F5F1F4FA8950E948F00EA
:1009C00082B78B3338F012BE86E690E0B801A601FC
:1009D0000E944E0380917A0084FFEFCF86E690E07C
:1009E00068E00E94950188E0F70111928A95E9F785
:0609F000E4CFF894FFCFF4
:0409F6005AFF0100A3
:00000001FF
