:100000000C9463000C94D1010C9480000C9480003B
:100010000C9480000C9480000C9480000C94800060
:100020000C9480000C9480000C9480000C94800050
:100030000C9480000C9480000C9480000C94800040
:100040000C9480000C9480000C9480000C94800030
:100050000C948000040309040E0366007200610022
:100060006D0070007A0012036D0069006B0065007E
:10007000720075006C007A00120110010000000887
:10008000C016DB2700010102000109022200010164
:1000900000800A0904000001030000000921010199
:1000A0000001221900070581030800640501090603
:1000B000A1010507950875081500256505071900B4
:1000C00029658100C00011241FBECFE5D4E0DEBF4A
:1000D000CDBF10E0A0E6B0E0E2EFFAE002C005908C
:1000E0000D92A436B107D9F711E0A4E6B0E001C043
:1000F0001D92AB32B107E1F70E945C030C947705C7
:100100000C94000085B7826085BF8BB780648BBF7D
:100110008BE480937D008AE580937C0008951F9393
:10012000CF93DF9390918D00935097FDA2C02091C3
:100130008A00809189008D3209F099C0983009F0C9
:1001400096C0CCE0D0E0C21BD109CF56DF4F83EC84
:10015000809371008AE5809360001092640088812A
:10016000807629F0CE010E940B03282F77C09A8158
:1001700010927A008981882321F410927B0022E07A
:1001800067C0853019F490938E0061C0863009F005
:100190004AC08B81813019F488E790E025C0823015
:1001A00041F48AE890E090938C0080938B0022E2E7
:1001B00036C08330F9F48A81882341F484E590E0E5
:1001C00090938C0080938B0024E029C0813041F40F
:1001D00088E590E090938C0080938B002EE01FC008
:1001E0008230E1F486E690E090938C0080938B005F
:1001F00022E115C0813241F48CE990E090938C00AB
:1002000080938B0029E00BC0823241F48CEA90E0AD
:1002100090938C0080938B0029E101C020E080E462
:10022000809364001BC0883021F421E080E990E0D5
:1002300011C0893019F49093900009C08A3011F4EC
:1002400021E006C08B3019F48BE480937D0020E020
:100250008AE790E090938C0080938B008F818823B5
:1002600021F48E81821708F4282F209361001092C8
:100270008D008091600084FF4AC0809161008F3FB3
:1002800009F445C0182F893008F018E0811B8093CD
:1002900061008091710098E8892780937100112393
:1002A00041F120918B0030918C008091640086FF99
:1002B0000DC0A2E7B0E080E090E0F901E80FF91F7F
:1002C000E491ED9301961817C1F708C0912FD90159
:1002D000E2E7F0E08D9181939150E1F71150812F89
:1002E00090E01F5F0196820F931F90938C00809384
:1002F0008B0082E790E0612F0E94CD01612F6C5F3F
:100300006C3019F08FEF809361006093600094E18E
:1003100080B3847231F49150D9F710928E0010920C
:100320008800DF91CF911F9108951F93DC01162F54
:1003300080917C0084FF07C080917D0098E8892728
:1003400080937D0003C08AE580937C00912FEEE7C7
:10035000F0E08D91819391501916DCF38EE790E0D7
:10036000612F0E94CD011C5F10937C001F910895A6
:10037000A82FB92F80E090E041E050EA609530E08E
:1003800009C02D9182279795879510F0842795278E
:10039000305EC8F36F5FA8F30895EADF8D939D93F5
:1003A0000895CF93CFB7CF93C395859BE9F7859BEE
:1003B00009C0859B07C0859B05C0859B03C0859BA5
:1003C00001C0A3C0DF93C0918A00DD27CF56DF4F65
:1003D000859B02C0DF91EBCF2F930F931F9300B348
:1003E0002FEF05FB20F94F933F9310B34FEF0127F9
:1003F00005FB21F93BE031C04E7F012F10B3216096
:1004000028C0102F4D7F2260000000B329C04B7F11
:100410002460012F000010B32BC010B3477F286069
:100420002AC04F7E00B320612CC04F7D10B32062E4
:100430002FC04F7B00B3206432C0422700B34993E2
:100440004FEF0000102715FB20F910B31472C9F10B
:10045000297F91F2012705FB21F900B3237F89F25F
:10046000315058F1102715FB22F910B3277E79F28D
:10047000012705FB23F92F7C81F200B3102715FB20
:1004800024F92F7971F200C010B3012705FB25F97B
:100490002F7359F200C000B3102715FB26F9223044
:1004A00040F200C010B3012705FB27F9243028F6DD
:1004B0004F77206810B30000F9CF10E41ABF00276F
:1004C00019C03B503195C31BD04010E41ABF0881BE
:1004D000033CF9F00B34E9F0209188001981110FE9
:1004E0001213EDCF4A81441F093641F10D3211F04C
:1004F000013E29F700938F003F914F911F910F917B
:100500002F91DF91CAB7C6FD4FCFCF91CFBFCF910B
:10051000189520918F00222379F310918D001123DB
:1005200069F534306AF130938D0020938900109181
:100530008A003BE0311B30938A0022C000918D007D
:100540000130E4F40AE54F7049F43091600034FD65
:1005500019C000936000C1E7D0E018C030917C0062
:1005600034FD10C000937C00CDE7D0E00FC027958C
:10057000A8F45150A9F4220F0000F9CF4AE503C0B6
:1005800042ED01C0432FC4E1D0E032E011B3146268
:10059000959A11BB02B320E414E25F93012756E061
:1005A00002BB279520F4515021F4220FF9CF0127E7
:1005B00056E000003B5A02BBD0F2279528F4515078
:1005C00029F4220F0000F9CF012756E0279502BB3E
:1005D00020F4515021F4220FF9CF012756E0299140
:1005E000332302BB21F60B7D10918E00110FC651F3
:1005F000D04002BB11F01093880010E41ABF0062D3
:1006000011B31B7D402F4B7D5F9100C000C002BB2A
:1006100011BB42BB71CFFC0186E690E090938C0049
:1006200080938B00808180768032B1F58181833028
:1006300029F1843028F4813051F0823069F509C005
:100640008A3051F08B3001F1893031F50AC088E0F1
:1006500008958FE690E01AC0838180936F0080E058
:10066000089586819781019719F481E08093650050
:1006700080916500813081F48FEF08958381882314
:1006800059F410926200089582E690E090938C00F5
:1006900080938B0081E0089580E00895882311F411
:1006A00087E208958A3010F4835E0895803110F057
:1006B0008BE10895865008951F93CF93DF938E9A10
:1006C0002EE088E190E00FB6F894A89581BD0FBEAA
:1006D00021BD0E9482008D9A20E048EB5BE004C0BF
:1006E000A895CA010197F1F72150D1F78D988BB7E2
:1006F0008BBF8BB781608BBF85E083BF12BE10922A
:100700006E0088E0E6E6F0E0DF011D928A95E9F7E9
:1007100078940E94D30410E0C6E6D0E0A8950E9429
:100720008F0082B78D3340F012BE86E690E06EE611
:1007300070E00E949604182F111684F780917C00B7
:1007400084FFECCF86E690E068E00E94950188E0A7
:10075000FE0111928A95E9F710926E0010E0DECF4B
:10076000DF93CF93CDB7DEB728970FB6F894DEBFEF
:100770000FBECDBFFE01319698E0DF011D929A9524
:10078000E9F78983A8950E948F0082B78739D0F353
:1007900012BE80917C0084FFF5CFCE01019668E007
:1007A0000E94950128960FB6F894DEBF0FBECDBF0C
:1007B000CF91DF9108950E94B00380E00E94B003C2
:1007C0000895EF92FF921F93CF93DF93EB017C018B
:1007D00011C0F70111917F01812F82958F700E94C6
:1007E0004E030E94DB03812F8F700E944E030E94F4
:1007F000DB0321971C161D0664F3DF91CF911F9137
:10080000FF90EF9008959C0150917000852F9927DB
:1008100087FD9095FC01EE0FFF1FE80FF91FEE0F0B
:10082000FF1FDF01A955BF4F11963C932E93E7554B
:10083000FF4F608315964C93159782E014968C9326
:100840002130310571F02130310538F02230310589
:1008500061F02330310581F40CC08BB3862B8BBB48
:100860000BC088B3862B88BB07C085B3862B85BB9E
:1008700003C082B3862B82BB5F5F509370000895E4
:10088000FC01808191818130910561F08130910579
:1008900038F08230910541F0039741F020E00CC020
:1008A00089B305C086B303C083B301C080B320E021
:1008B0009281892309F421E0822F0895DB01EC91D4
:1008C000E8304CF4FF27E7FDF095E80FF91F40836F
:1008D0008C918F5F8C930895CF93DF93EC010E94EE
:1008E0004004482F5B81282F30E0852F992787FD12
:1008F00090952817390739F4552311F082E001C08B
:1009000081E08C8305C08C8181508C83882311F019
:1009100080E009C04B83442321F082E08C8381E096
:1009200002C081E08C83DF91CF910895CF92DF9256
:10093000EF92FF920F931F93CF93DF936C018B0184
:10094000DB011C9288E0F60111928A95E9F7C7EA6B
:10095000D0E0EE24FF2419C0CE010E946C04982F31
:100960008B81882371F08D81D801EC91E8304CF4B3
:10097000FF27E7FDF095EC0DFD1D80838C918F5FC7
:100980008C939111E394F394269680917000F8165D
:100990001CF38E2DDF91CF911F910F91FF90EF905F
:1009A000DF90CF9008951092700084E8E7EAF0E0BD
:1009B000DF011D928A95E9F780E090E061E04DE16A
:1009C00050E00E94030480E090E062E04BE150E0E0
:1009D0000E94030480E090E064E046E050E00E9462
:1009E000030480E090E068E049E150E00E940304E5
:1009F00080E090E060E145E050E00E94030480E088
:100A000090E060E241E150E00E94030480E090E069
:100A100060E440E150E00E94030482E090E062E084
:100A200047E250E00E94030482E090E064E04DE57C
:100A300050E00E94030482E090E068E04FE150E063
:100A40000E94030482E090E060E140E250E00E94F6
:100A5000030482E090E060E241E250E00E9403047F
:100A600082E090E060E447E550E00E94030482E009
:100A700090E060E843E250E00E94030483E090E0ED
:100A800061E04AE150E00E94030483E090E062E00C
:100A900047E050E00E94030483E090E068E046E114
:100AA00050E00E94030483E090E060E144E050E005
:100AB0000E94030481E090E061E04EE550E00E9476
:100AC000030481E090E062E04AE550E00E94030404
:100AD00081E090E064E04CE550E00E94030481E096
:100AE00090E068E040E650E00E9403040895F89426
:020AF000FFCF36
:040AF2005AFF0100A6
:00000001FF
